:020000040800F2
:10000000C005002001010008C9170008C31400083A
:100010007516000899010008111D00080000000075
:10002000000000000000000000000000FB170008B6
:100030009B01000800000000F91700083D180008A7
:100040001B0100081B0100081B0100081B01000820
:100050001B0100081B0100081B0100081B01000810
:100060001B0100081B0100081B0100081B01000800
:100070001B0100081B0100081B0100081B010008F0
:100080001B0100081B0100081B0100081B010008E0
:100090001B0100081B0100081B0100081B010008D0
:1000A0001B0100081B0100081B0100081B010008C0
:1000B0001B0100081B0100081B0100081B010008B0
:1000C0001B0100081B0100081B0100081B010008A0
:1000D0001B010008F91C00081B010008051D000891
:1000E0001B0100081B0100081B010008DFF80CD0F1
:1000F00000F040F80048004715260008C005002021
:100100000648804706480047FEE7FEE7FEE7FEE7B1
:10011000FEE7FEE7FEE7FEE7FEE7FEE79F180008C2
:10012000ED000008D2B201E000F8012B491EFBD21D
:1001300070470022F6E710B513460A4604461946F2
:10014000FFF7F0FF204610BD30B50B4601460020FA
:100150002022012409E021FA02F59D4205D303FA89
:1001600002F5491B04FA02F52844151EA2F101020A
:10017000F1DC30BD064C074D06E0E06840F00103BD
:1001800094E8070098471034AC42F6D3FFF7B2FF6B
:10019000C8290008E8290008FEE770470D49002239
:1001A0000B685A620A68136843F001031360096818
:1001B0004A6A8242FCD3086A41F21112104207D106
:1001C000086A9210104203D1086820F0010008600C
:1001D000704700003C00002072B6FEE710B590F8B2
:1001E00021100022022905D00421816380F82020FB
:1001F000012010BD01680B6823F00E030B6001683D
:100200000B6823F001030B6090F84030C46B0121B0
:1002100001FA03F3636080F8211080F82020104673
:1002200010BD000010B590F821100024022903D061
:100230000421816301243DE001680A6822F00E0276
:100240000A6001680A6822F001020A601A4A01681D
:10025000914201D1012121E0174A1432914201D18A
:1002600010211BE0144A2832914201D1891515E072
:10027000114A3C32914201D189140FE00E4A5032AA
:10028000914202D14FF4803108E00B4A643291422E
:1002900002D14FF4801101E04FF08071064A083A14
:1002A0005160012180F82110002180F82010416B5D
:1002B00001B18847204610BD0800024070B50446D1
:1002C00000F010F90546601C02D004480078044490
:1002D00000F008F9401BA042FAD370BD04000020D2
:1002E0002DE9F84FDFF8B8910024A9F1040B23465B
:1002F0000F2709F1040AABF1040EC9E00125A5405E
:100300002A40AA427DD1674ED1F804C0ACEB060862
:10031000B44532D014DCBCF1030F3AD009DCBCF197
:10032000000F2AD0BCF1010F1CD0BCF1020F31D15B
:100330001DE0BCF1110F17D0BCF1120F2AD119E04A
:10034000B8F5881F19D006DCB8F5803F15D0B8F590
:10035000801F1FD111E0B8F5001F0ED0B8F5041FA3
:1003600018D10AE0CB6815E0CB681B1D12E0CB6802
:1003700008330FE0CB680C330CE08B682BB1012BFA
:100380004FF0080303D0456104E0042302E0056157
:1003900000E00023FF2A01D8064601E000F1040630
:1003A0004FEA840501D9A5F12005D6F8008007FAA7
:1003B00005FC28EA0C0803FA05F548EA0508C6F822
:1003C00000804D68ED0062D5374DAE6946F00106FC
:1003D000AE61AD6924F0030605F001050095334DCB
:1003E00006EB050CDCF80850A607360F07FA06F8EE
:1003F00025EA0805DFF8B880404503D14FF0000832
:1004000017E044E0DFF8AC80404502D14FF001082E
:100410000FE0DFF8A480404502D14FF0020808E069
:10042000DFF89880404502D14FF0030801E04FF01B
:10043000040808FA06F848EA0508CCF808804D6870
:10044000D9F80060ED024D4601D5164300E0964311
:100450002E604D68DAF80060AD02554601D51643AE
:1004600000E096432E604D68DBF80060AD035D460A
:1004700001D5164300E096432E604D68DEF800601B
:10048000ED03754601D5164300E096432E60641CCB
:100490000D682A46E5407FF431AFBDE8F88F0000D3
:1004A000080401400000111000100240000001404B
:1004B00000080140000C0140001001400014014000
:1004C0008068084000D001207047C26821EA02031A
:1004D0000A4043EA0241016170470AB10161704775
:1004E0000904FBE701488068704700000400002011
:1004F00090F84010012912D0012100F8401F24215A
:10050000417050F8401CCA6822F00C0242F004020C
:10051000CA60202141700021017008467047022006
:10052000704790F84010012912D0012100F8401FB7
:100530002421417050F8401CCA6822F00C0242F09D
:100540000802CA60202141700021017008467047EE
:100550000220704770B5040004D094F841000025D3
:1005600010B106E0012070BD84F84050204600F034
:10057000FBFD242084F841002068C16821F400516B
:10058000C160204601F008FB2068016921F4904118
:1005900001612068416921F02201416120684169BF
:1005A00041F0080141612068C16841F40051C16017
:1005B0006564202084F8410084F8420065630020CF
:1005C00070BD000002488168027811448160704764
:1005D00004000020074810B5016841F010010160D7
:1005E000032000F075F80F2000F006F800F024F862
:1005F000002010BD0020024070B50D4D04464FF4A0
:100600007A712878B1FBF0F00A490968B1FBF0F083
:1006100000F0DCFA48B9102C07D200222146501E07
:1006200000F036F800206C6070BD012070BD000045
:1006300004000020100000200C4808B5816941F03A
:1006400001018161816901F001010091C16941F0FD
:100650008051C161C06900F0805000900448416839
:1006600021F0E06141F08061416008BD001002406E
:1006700000000140002809DB00F01F020121914029
:100680004009800000F1E020C0F800117047000030
:10069000F0B40E4B1B680C46C3F30223C3F10705ED
:1006A000042D00D90425191D072901D2002300E0DB
:1006B000DB1E012606FA05F1491E214099409E40A5
:1006C000761E16403143F0BC01F038BB0CED00E063
:1006D000064900F0070208684FF6FF03184040EA99
:1006E0000220034A10430860704700000CED00E050
:1006F0000000FA052DE9F0470F46050061D0434E92
:10070000306800F00700B84209D2306820F00700D6
:1007100038433060306800F00700B84251D1286893
:100720003B4C810712D5400703D5606840F4E06078
:1007300060602878000703D5606840F4605060600E
:100740006068A96820F0F000084360602878C0075E
:1007500028D06868012810D02168022810D08907A5
:1007600000292EDA616821F0030101436160FFF77F
:10077000B9FE804641F288390DE021688903EFE730
:100780008901EDE7FFF7AEFEA0EB0801494502D96C
:100790000320BDE8F0876068696800F00C00B0EBEA
:1007A000810FEFD1306800F00700B8420BD93068F4
:1007B00020F0070038433060306800F00700B8428E
:1007C00001D00120E5E72878400705D56068E96891
:1007D00020F4E060084360602878000706D5606870
:1007E000296920F4605040EAC100606000F038F8E8
:1007F0006168084AC1F30311515CC84006490860AA
:1008000006480068FFF7F8FE0020C2E7002002401B
:1008100000100240D6280008100000200800002028
:100820000448054900684968044AC1F30221515C43
:10083000C84070471000002000100240E628000861
:100840000448054900684968044AC1F3C221515C63
:10085000C84070471000002000100240E628000841
:100860000E4A51680E4801F00C03042B11D0082BDE
:100870000FD10C48C1F38343C903C05C0AD551684A
:10088000084AC1F34041921E515C054A5043B0FBF7
:10089000F1F07047044948437047000000100240DF
:1008A00000127A00C628000800093D002DE9F84F23
:1008B000040070D02078C04DC00749D06868C0F3EC
:1008C0008100012807D06868C0F38100022809D19F
:1008D0006868C00306D52868800339D56068002899
:1008E000E7D035E06068B0F5803F0BD010B1B0F5CF
:1008F000A02F11D0286820F480302860286820F4C8
:10090000802002E0286840F480302860606890B160
:10091000FFF7E8FD06460AE0286840F480202860DA
:10092000F0E700BFFFF7DEFD801B642873D828685E
:100930008003F7D50CE0FFF7D5FD064605E000BFC4
:10094000FFF7D0FD801B6428F0D828688003F7D417
:1009500020789A4E80074FF001094FF0000839D5F2
:10096000686810F00C0F07D06868C0F38100022897
:1009700009D16868C00306D42868800714D52069A7
:10098000012808D110E02069B0B1C6F80090FFF747
:10099000A9FD074605E00AE1FFF7A4FDC01B0228F8
:1009A000C4D828688007F7D52868616920F0F80066
:1009B00040EAC10028600DE0C6F80080FFF792FD14
:1009C000074604E0FFF78EFDC01B022823D82868E5
:1009D0008007F7D4207800072CD57948A169D9B1D0
:1009E000C0F80090FFF77EFD074604E0FFF77AFDB0
:1009F000C01B02280FD8686A8007F7D571484FF4EA
:100A0000FA510068B0FBF1F0009000BF0098411E61
:100A10000091FAD20EE080E0C0F80080FFF762FD9E
:100A2000074604E0FFF75EFDC01B022875D8686A20
:100A30008007F7D42078400760D5E8690027C00018
:100A400008D4E86940F08050E861E869012700F0C7
:100A5000805000905C480168C90513D40168834642
:100A600041F480710160FFF73DFD824606E000BF62
:100A7000FFF738FDA0EB0A0064284ED8DBF8000031
:100A8000C005F5D5E06801280AD008B1052813D0C3
:100A9000286A20F001002862286A20F0040002E0A1
:100AA000286A40F001002862E06841F2883B98B172
:100AB000FFF718FD82460BE0286A40F00400286228
:100AC000EEE700BFFFF70EFDA0EB0A0159455AD82B
:100AD000286A8007F6D50CE0FFF704FD824605E0A2
:100AE000FFF700FDA0EB0A0159454CD8286A8007A2
:100AF000F6D41FB1E86920F08050E861E06988B35E
:100B00006968C1F38101022944D00228C6F86080D7
:100B100004D0FFF7E7FC044638E034E0FFF7E2FCDE
:100B2000074604E0FFF7DEFCC01B02282BD828682C
:100B30008001F7D4206AB0F5803F05D16868A168CC
:100B400020F4003008436860D4E90801084369686C
:100B500021F4741108436860C6F86090FFF7C2FC86
:100B6000044606E025E000BFFFF7BCFC001B02289E
:100B700009D828688001F7D51BE000BFFFF7B2FC59
:100B8000001B022802D90320BDE8F88F28688001E5
:100B9000F4D40EE00128F7D06868226A00F48031AE
:100BA000914204D1616A00F47010884201D00120A2
:100BB000EAE70020E8E7000000100240000042429F
:100BC00080044242100000200070004010B5401E1A
:100BD000B0F1807F01D3012010BD4FF0E0246061AF
:100BE0000F21601701F0AAF80020A0610720206102
:100BF000002010BD70B590F83C20012A26D00124B9
:100C000080F83C40022280F83D2003685A689D68C5
:100C100022F070060A6832435A600D4B02689A420D
:100C200008D0B2F1804F05D00A4B9A4202D00A4B4D
:100C30009A4204D1496825F080031943916080F8F5
:100C40003D40002180F83C10084670BD022070BD78
:100C5000002C0140000400400008004000B585B0B1
:100C60000021009101910291039100680B49884293
:100C700012D10B48816941F00801816180696946A0
:100C800000F0080004904FF4607000900220019082
:100C900003900448FFF724FB05B000BD00080040A6
:100CA00000100240000C014070B5044690F83C0072
:100CB00000260D4601280FD0012084F83C006AB1BF
:100CC000042A1DD0082A2FD00C2A3FD0012600204C
:100CD00084F83C00304670BD022070BD206800F0F2
:100CE00029FE2068816941F00801816120688169DD
:100CF00021F004018161206881692A69114311E0B2
:100D0000206800F03FFE2068816941F40061816144
:100D10002068816921F480618161206881692A6984
:100D200041EA02218161D2E7206800F057FE206885
:100D3000C16941F00801C1612068C16921F0040165
:100D4000C1612068C1692A69114311E0206800F07F
:100D500071FE2068C16941F40061C1612068C16908
:100D600021F48061C1612068C1692A6941EA0221D8
:100D7000C161ACE710B5040003D094F83D0010B198
:100D800007E0012010BD002084F83C00204600F060
:100D90001FF8022084F83D00211D206800F080FD2E
:100DA000012084F8460084F83E0084F83F0084F86F
:100DB000400084F8410084F8420084F8430084F83D
:100DC000440084F8450084F83D00002010BD000078
:100DD00008B500680649884208D10648C16941F053
:100DE0000401C161C06900F00400009008BD00006A
:100DF000000800400010024010B50446022249B12C
:100E000004290ED0082913D094F84100012816D0E7
:100E1000012010BD94F83E000128F9D184F83E204D
:100E20000FE094F83F000128F2D184F83F2008E059
:100E300094F840000128EBD184F8402001E084F8C8
:100E400041200122206800F067FD0F492068884298
:100E500003D1426C42F4004242642068884208D0C8
:100E6000B0F1804F05D00949884202D00849884234
:100E700004D1816801F00701062903D0016841F01F
:100E800001010160002010BD002C01400004004061
:100E90000008004070477047F8B5016804460868CC
:100EA000CA684B6910F00F0F4FF0000559D003F0DE
:100EB000010602F49077374365D0C10705D0D1050C
:100EC00003D5616C41F001016164410705D5D90783
:100ED00003D0616C41F002016164810705D5D90737
:100EE00003D0616C41F004016164010707D502F091
:100EF0002001314303D0616C41F008016164616CF1
:100F000000293AD0800604D5900602D5204600F08C
:100F1000E2FD20684069616CC0F38010090700D4CD
:100F200060B3204600F0B0FD20684069400621D53E
:100F30002068143050E8001F21F0400140E8001202
:100F4000002AF5D1E06BA8B16D494163E06BFFF772
:100F500069F9002811D0E06B416B01B0BDE8F040A9
:100F6000084783060FD593060DD52046BDE8F84007
:100F700000F0B1BD2046FFF78EFFF8BD2046FFF719
:100F80008AFF6564F8BD266B2023012E7CD1C6063E
:100F90007AD5D60678D508684868009048694FF039
:100FA0000206400640D5E16B086840680004000C6A
:100FB000E8D0A28D8242E5D9E085886920282DD02D
:100FC00020680C3050E8001F21F4807140E80012C6
:100FD000002AF5D12068143050E8001F21F00101EB
:100FE00040E80012002AF5D12068143050E8001FB4
:100FF00021F0400140E80012002AF5D184F8423087
:10100000256320680C3050E8001F21F0100140E8F3
:101010000012002AF5D1E06BFFF7E0F86663A08DBF
:10102000E18D401A81B22AE0A08DE18D401A81B293
:10103000E08D0028A6D00029A4D022680C3252E806
:10104000000F20F4907042E80007002FF5D12068CF
:10105000143050E8002F22F0010240E80027002F52
:10106000F5D184F84230256320680C3050E8002F19
:1010700022F0100240E80023002BF5D166632046E1
:10108000FFF708FFF8BDFFE705062BD5150629D5A4
:1010900094F841002128F5D1A068B0F5805F01D116
:1010A0002069B0B1206A411C216221680078486043
:1010B000E08C401E0004000CE084E3D12068C1688D
:1010C00021F08001C1602068C16841F04001C16029
:1010D000D8E7206A0088C0F308004860206A801CB6
:1010E0002062E5E74006CDD55006CBD5CA6820463C
:1010F00022F04002CA6084F8413000F0E1F9C1E713
:10110000791A000870B5040004D094F84100002555
:1011100010B106E0012070BD84F84050204600F078
:1011200023F8242084F841002068C16821F400518C
:10113000C160204600F030FD2068016921F4904133
:1011400001612068416921F02A0141612068C1687C
:1011500041F40051C1606564202084F8410084F8A6
:1011600042006563002070BD70B586B00024009415
:1011700001940294039402682A48294B032105151F
:101180009A4227D1826942F480428261826902F4E4
:1011900080420492826942F0040282618069224E98
:1011A00000F0040004905815009002200391019073
:1011B00069463046FFF794F8CDE900546946304659
:1011C0000294FFF78DF8002211462520FFF760FA00
:1011D000252020E0154B9A421FD1C26942F480229B
:1011E000C261C26902F480220492826942F008025C
:1011F00082618069039100F0080004901220CDE91B
:10120000005069460A48FFF76BF800221146272074
:10121000FFF73EFA2720FFF72DFA06B070BD000059
:101220000038014000100240000801400048004022
:10123000000C014090F84230202B01D00220704772
:1012400021B11AB10023036300F002BD01207047F1
:101250002DE9F04700686649884278D1654C002640
:101260002078FF280DD3267050216348FEF761FFD8
:1012700061484FF6FF730A2260A1503000F0D0F8A9
:10128000A8E05D4D61782954401CC0B22918207037
:1012900011F8012C0A2A71D111F8021C0D296DD107
:1012A000DFF868912A7899F80010572A0CD0532A51
:1012B00011D0582A15D0412A19D0442A1DD0512ABC
:1012C00021D0452A25D029E003287ED100297CD1D0
:1012D00001F0FEF922E0032877D1B9BB01F017FA3B
:1012E0001CE0032871D189BB01F0E8F916E003285E
:1012F0006BD159BB01F0F6F910E0032865D129BB89
:1013000001F0FBF90AE003285FD1F9B901F0C6FA50
:1013100004E0032859D1C9B901F0CAFAA8462878CF
:101320003B4F3C490125492812D04B2827D03A4948
:101330004A281BD04C2822D0384940F24C4243283E
:1013400023D0562827D042282DD031E01AE04DE096
:101350002078032839D108780D280DD313E00878B8
:1013600088B1401E087000F0B3FE0CE0207803281E
:101370002BD10878082806D2401CF3E72AE0207811
:101380000328ECD021E03D7012E0207803281CD126
:10139000086882630CE02078032816D109684FF4AE
:1013A0007A70C86304E0207803280ED108680264CC
:1013B00098F800005A2808D12078032805D199F818
:1013C000001001290FD089F80050267050210A48DA
:1013D000FEF7AFFEBDE8F047064907480122491C69
:1013E0005030FFF727BF89F80060EEE7BDE8F087CF
:1013F000003801400000002084000020E695B0E69F
:101400008DAEE6BAA2E587BA000000001800002001
:101410003800002036000020370000203C0000206B
:101420002DE9F843044690F84100984616460D46CB
:10143000202802D00220BDE8F88385B17EB10020CB
:101440006064212084F84100FFF74CF8A6848146AF
:10145000E684A0682027B0F5805F02D003E0012079
:10146000E9E7206910B12E4600250EE000260CE0C9
:101470008021204600F007FCA8B9C6B116F8010B80
:1014800021684860E08C401EE084E08C4B464FF0C1
:101490000002CDF800800028EAD14FF0400120463C
:1014A00000F0F1FB40B184F841700320C3E735F848
:1014B000020BC0F30800E3E784F841700020BAE7AC
:1014C0007047FEE72DE9F04385B0002426480094DC
:1014D000019402940394816941F020018161816942
:1014E00001F020010491816941F008018161816965
:1014F00001F008010491816941F004018161806972
:10150000DFF8688000F0040042F220050490002219
:1015100029464046FEF7E1FFDFF854904FF4E047DC
:10152000002239464846FEF7D8FF009502260125DD
:101530000396CDE9015469464046FEF7D1FE4FF4CB
:101540000940CDE90004694648460294FEF7C8FE0A
:1015500000970396CDE9015469464846FEF7C0FE60
:1015600005B0BDE8F083000000100240000C01400F
:101570000008014010B58AB0002407941C21684679
:101580000894FEF7D6FD1E481C4901604721C0E9BA
:10159000011444F61F61C0E903148461FFF7EAFBFC
:1015A00008B1FEF719FE079407A915480894FFF73C
:1015B00021FB08B1FEF710FE6020CDE90004029483
:1015C000042269460E480494FFF76EFB08B1FEF74B
:1015D00003FE082269460A48FFF766FB08B1FEF7DA
:1015E000FBFD0C2269460648FFF75EFB08B1FEF7DB
:1015F000F3FD0348FFF732FB0AB010BD00080040BE
:101600003C0000200C4810B50A4901604FF4E1315C
:101610004160002181600C22C160C0E90412816137
:10162000C161FFF76FFD002803D0BDE81040FEF751
:10163000D3BD10BD00380140D40000200C4810B5C7
:101640000A4901604FF4E1314160002181600C22C0
:10165000C160C0E904128161C161FEF77BFF00280F
:1016600003D0BDE81040FEF7B7BD10BD00480040F4
:101670001C010020FEE7000030B40F3101EB8101B6
:101680004D001049C2F10F02029C02EB82020D7064
:1016900052004A700F3303EB830252008A70C4F188
:1016A0000F0202EB82025200CA70012804D0022805
:1016B00005D130BC00F02CB830BC00F005B830BC0F
:1016C00070470000140000201CB50D48C2788178D6
:1016D000CDE90012437802780A490B4800F01AFB62
:1016E0000A48FEF71EFF4FF6FF73502206490748CF
:1016F000FFF796FEBDE81C400448FEF7F9BE000067
:101700001400002034290008640100201C0100207E
:101710001CB50D48C2788178CDE900124378027873
:101720000A490B4800F0F6FA0A48FEF7FAFE4FF6AF
:10173000FF73502206490748FFF772FEBDE81C40C0
:101740000448FEF7D5BE000014000020F028000871
:10175000640100201C01002010B509A1184800F008
:10176000D9FA1848FEF7DDFE4FF6FF7350221449F0
:101770001448FFF755FEBDE810401248FEF7B8BE0A
:101780007B233030365031353030543130303021D9
:101790002330303750313530305431303030212320
:1017A0003030385031353030543130303021233002
:1017B000303950313530305431303030217D0000F7
:1017C000640100201C010020FEE7000010B5094C58
:1017D000012251032046FEF780FE0122910320469C
:1017E000FEF77BFE20460122BDE810401103FEF704
:1017F00074BE0000000801407047704710B50B49E7
:101800000B4800F087FA0B48FEF78BFE4FF6FF738C
:10181000502207490748FFF703FE0648FEF768FE17
:1018200005480B2181700421C17010BD7829000882
:10183000640100201C01002034000020FEF7C2BE1D
:1018400030B58FB028216846FEF773FC14210AA832
:10185000FEF76FFC01210804CDE90010002402947A
:1018600002250491CDE907504FF4E0100990684635
:10187000FFF71CF808B172B6FEE70F20CDE90A05A4
:101880004FF48060CDE90C4002210AA80E94FEF7C7
:1018900031FF002801D072B6FEE70FB030BD7047AF
:1018A000F0B50268194B1A4C1A4D4FF08047984218
:1018B00005D0B84203D0A04201D0A84203D122F003
:1018C00070064A683243984205D0B84203D0A0421D
:1018D00001D0A84203D122F44074CA6822434C6963
:1018E00022F08002224302608A68C2620A68826231
:1018F000984201D109690163012141610169C90768
:1019000003D0016921F001010161F0BD002C01400B
:10191000000400400008004010B501F01F03012141
:10192000046A99408C430462016A9A40114301623F
:1019300010BD000030B5036A026A22F001020262A3
:101940004268846924F073050C682C4323F0020577
:101950008B682B430A4DA8420BD123F00805CB68B6
:1019600022F440722B434D6923F0040315438A6926
:101970002A434260846149684163036230BD0000CC
:10198000002C014030B5026A036A23F010030362A1
:10199000436884690D6824F4E64444EA05248D68AC
:1019A00022F0200242EA05120B4DA8420ED1CD686A
:1019B00022F0800242EA05124D6923F4406343EAB3
:1019C00085038D6922F0400243EA85034360846108
:1019D00049688163026230BD002C014030B5036A62
:1019E000026A22F4807202624268C46923F40073BE
:1019F00024F073050C682C438D6843EA05230C4DD5
:101A0000A8420ED1CD6823F4006343EA05234D6953
:101A100022F4405242EA05128D6923F4806342EABF
:101A200005124260C4614968C163036230BD0000B1
:101A3000002C014030B5046A026A22F4805202622E
:101A40004268C3690D6823F4E64343EA05238D68C1
:101A500024F4005444EA0534064DA84204D14D69EB
:101A600022F4804242EA85124260C36149680164FF
:101A7000046230BD002C014010B5406A0021C185D0
:101A8000C184FFF708FA10BD01680C3151E8002F3E
:101A900022F4907241E80023002BF5D10168143143
:101AA00051E8002F22F0010241E80023002BF5D17C
:101AB000016B012909D101680C3151E8002F22F096
:101AC000100241E80023002BF5D1202180F84210BC
:101AD00000210163704708B590F84210222901D017
:101AE000022008BD82684FF480539A4201D10169F7
:101AF00021B1816A9A421BD04AB10AE00268816A28
:101B00005268C2F308020A80816A891C08E00269EF
:101B100072B10268526802F07F020A70816A491C41
:101B20008162C18D491E0904090CC18503D01BE0E7
:101B300002685268F1E70168CA6822F02002CA60B0
:101B40000168CA6822F48072CA6001684A6922F09A
:101B500001024A61202180F8421000214163026B9A
:101B6000012A03D0FFF774FB002008BD0163016860
:101B70000C3151E8002F22F0100241E80023002B25
:101B8000F5D101680A68D20602D50A684968009151
:101B9000818DFFF77FF9E7E770B5044600680169BA
:101BA000E26821F44051114301612169A0680843B2
:101BB000616908432168CA6841F20C639A43024391
:101BC000CA6020684169A26921F4407111434161F2
:101BD0001E492068884202D1FEF732FE01E0FEF77E
:101BE0001FFE00EBC00101EB001260686421800061
:101BF000B2FBF0F3B3FBF1F36FF018067343B2FBE3
:101C0000F0F5B2FBF0F605EB8305322303EB051587
:101C1000B5FBF1F5B6FBF1F605F0F00505EB0615A1
:101C2000B2FBF0F6B2FBF0F0B0FBF1F06FF018028F
:101C3000504306EB800003EB0010B0FBF1F021688D
:101C400000F00F002844886070BD0000003801409B
:101C500081628285C28500214164222180F8421080
:101C6000016921B10168CA6842F48072CA600168E2
:101C70004A6942F001024A610068C16841F02001EE
:101C8000C160002070472DE9F843984617460D467D
:101C90000446089E24E0701C22D0FEF723FCA0EB33
:101CA0000800B0421AD8CEB12068C168490717D5DC
:101CB000802D15D0402D13D00168C94309070FD4DA
:101CC00001680025406800902046FFF7DDFE0820EF
:101CD000606484F840500120BDE8F8830320FBE7EE
:101CE0002068006835EA000004D00020B842D2D055
:101CF0000020F1E70120F9E70148FFF7CDB8000027
:101D0000D40000200148FFF7C7B800001C010020E4
:101D1000FEE700000FB4084B10B504A902AA03980F
:101D200000F02CF8044602A9002000F0C8F9204673
:101D300010BC5DF814FB0000BF2000080907090E65
:101D4000002804DB00F1E02080F80014704700F068
:101D50000F0000F1E02080F8141D704702E008C871
:101D6000121F08C1002AFAD170477047002001E015
:101D700001C1121F002AFBD1704700002DE9FF4F5F
:101D80008BB088460546002606E025280BD0DDE905
:101D90000D1290476D1C761C28780028F5D10FB0E5
:101DA0003046BDE8F08F0024A146A2460122AE498C
:101DB00000E0044315F8013F203B02FA03F008421B
:101DC000F7D128782A2810D06FF02F022878A0F1B8
:101DD0003001092915D809EB890102EB410144F0D2
:101DE000020400EB01096D1CF0E758F8041B5FEAE0
:101DF000010903D544F40054C9F1000944F0020478
:101E00006D1C28782E2817D115F8010F44F0040412
:101E10002A280ED06FF02F022878A0F1300109296E
:101E20000AD80AEB8A0102EB410100EB010A6D1CA2
:101E3000F2E758F804AB6D1C28786C280FD006DC4C
:101E40004C2817D068280DD06A2814D104E07428D3
:101E500010D07A280FD10DE044F400140AE044F4C5
:101E6000801401E044F440146978814202D104F501
:101E700080146D1C6D1C2878692865D006DC00284C
:101E80008DD0632827D0642806D15DE06E2808D065
:101E900073282AD0752877D0DDE90D129047761C7B
:101EA000E0E0C4F30250022809D003280DD0D8F88E
:101EB000001004280DD00E6008F10408D2E0D8F814
:101EC0000010F217C1E90062F6E7D8F800100E80A2
:101ED000F2E70E70F0E718F8041B8DF800100020F0
:101EE0008DF80100EB46012003E058F804BB4FF0E9
:101EF000FF3061074FF0000701D40AE07F1C57450F
:101F00000DDA8742FADB1BF807100029F6D106E04C
:101F10007F1C8742FCDB1BF807100029F8D1DDE9A4
:101F20000D23A9EB07008146214600F0B1F83044AB
:101F3000C61904E0DDE90D121BF8010B90477F1E66
:101F4000F8D22146484688E058F8040BC4F3025101
:101F50004FF00A0B032900D100B2042900D140B28E
:101F6000002802DA40422D2102E0210505D52B216F
:101F70008DF82410012104E006E0E10710D02021B3
:101F8000F6E708AF089113E058F8040BC4F30251C8
:101F90004FF00A0B032900D180B2042900D1C0B24E
:101FA0000021EEE75946FEF7CFF8303107F8011D62
:101FB0000028F7D1ADEB070000F1200B600702D538
:101FC00024F4803401E04FF0010ADA4502DDAAEB87
:101FD0000B0000E00020824600EB0B010898014452
:101FE000A9EB01000A90E00306D4DDE90D232146A8
:101FF0000A9800F04DF806444FF0000908E009A9DE
:1020000011F80900DDE90D12904709F10109761C6C
:1020100008998945F3DBE0030CD5DDE90D23214662
:102020000A9800F035F8064404E0DDE90D1230208E
:102030009047761CBAF10001AAF1010AF5DC05E02F
:10204000DDE90D1217F8010B9047761CBBF100017A
:10205000ABF1010BF4DC0A982146DDE90D2300F019
:1020600005F806446D1C97E6092801002DE9F041AA
:10207000044600251E461746880404D405E0394668
:102080002020B0476D1C641EF9D52846BDE8F081BC
:102090002DE9F041044600251E469046C80301D5AF
:1020A000302700E02027880404D505E04146384663
:1020B000B0476D1C641EF9D52846BDE8F0810A685A
:1020C000531C0B6010707047002800DC40427047C2
:1020D00070B5374C4FF6FF75A078217888421CD038
:1020E0000E280ED2DFE800F0070926282A2C2E3011
:1020F000323436383A3C2FA100E037A13F48FFF791
:1021000009FE3F48FEF70DFA2B4650223B493C485A
:10211000FFF786F93A48FEF7EBF9E07861788842F4
:1021200032D0092824D2DFE800F01D1F3436383AB7
:102130003C3E400033A1E1E73BA1DFE743A1DDE7FF
:102140004BA1DBE753A1D9E75BA1D7E763A1D5E7B3
:102150006BA1D3E773A1D1E77EA1CFE789A1CDE73A
:1021600091A1CBE799A100E09DA12448FFF7D2FD02
:102170002348FEF7D6F92B46502220492048FFF786
:102180004FF91F48FEF7B4F9A0782070E07860702E
:1021900070BD98A1E9E79CA1E7E7A0A1E5E7A4A1AC
:1021A000E3E7A8A1E1E7ACA1DFE7B0A1DDE700002C
:1021B000340000202330303150303730305431304B
:1021C00030302123303032503131303054313030E2
:1021D00030210D0A000000002330303150303830FB
:1021E00030543130303021233030325031323030C1
:1021F0005431303030210D0A00000000640100200D
:102200001C0100202330303150303930305431300F
:10221000303021233030325031333030543130308F
:1022200030210D0A000000002330303150313030B1
:10223000305431303030212330303250313430306E
:102240005431303030210D0A00000000233030318D
:102250005031313030543130303021233030325031
:10226000313530305431303030210D0A000000005B
:10227000233030315031323030543130303021233E
:1022800030303250313630305431303030210D0A58
:1022900000000000233030315031333030543130C1
:1022A00030302123303032503137303054313030FB
:1022B00030210D0A0000000023303031503134301D
:1022C00030543130303021233030325031383030DA
:1022D0005431303030210D0A0000000023303031FD
:1022E000503135303054313030302123303032509D
:1022F000313930305431303030210D0A00000000C7
:1023000023303031503136303054313030302123A9
:1023100030303250323030305431303030210D0ACC
:10232000000000002330303150313730305431302C
:10233000303021233030325032313030543130306F
:10234000302123303033503132303054313030305E
:10235000210D0A00233030315031383030543130C3
:10236000303021233030325032323030543130303E
:10237000302123303033503131303054313030302F
:10238000210D0A0023303031503139303054313092
:10239000303021233030325032333030543130300D
:1023A00030210D0A0000000023303031503230302F
:1023B00030543130303021233030325032343030EC
:1023C0005431303030210D0A00000000233030300D
:1023D00050303730305431303030210D0A00000099
:1023E0002330303050303930305431303030210DDE
:1023F0000A00000023303030503131303054313059
:102400003030210D0A00000023303030503133309D
:10241000305431303030210D0A000000233030308C
:1024200050313530305431303030210D0A00000049
:102430002330303050313730305431303030210D8E
:102440000A00000023303030503139303054313000
:102450003030210D0A00000023303030503231304E
:10246000305431303030210D0A000000233030303C
:1024700050323330305431303030210D0A000000FA
:1024800070B5084C0546012220212046FEF725F8AC
:102490002846FDF713FF2046BDE8704001222021A9
:1024A000FEF71BB8000C01401CB5A3F2DC535B42E5
:1024B00002F2DC52CDE90023A1F2DC514B4200F2E2
:1024C000DC5209A11848FFF725FC1848FEF729F847
:1024D0004FF6FF73502214491448FEF7A1FFBDE8E0
:1024E0001C401248FEF704B87B23303036502530AC
:1024F000346454303030302123303037502530347C
:10250000645430303030212330303850253034643A
:102510005430303030212330303950253034645439
:1025200030303030217D0000640100201C0100208B
:1025300070B5094D094C2878E178884203D1687854
:102540002179884207D06178E01C00F0EBF8E07850
:1025500028702079687070BD1C000020B401002034
:102560002A4910B5487873284FD1087AC0F17F0006
:10257000FFF7AAFD7F22052800DA0A728879C0F1E8
:102580007F00FFF7A1FD052800DA8A71087A204C48
:10259000C0F17F008000A0604979C1F17F0149004E
:1025A000E160FFF791FD4FF47A72002351426428F5
:1025B00001DAA36007E0A068904201DDA26002E0BA
:1025C000884200DAA160E068FFF77EFD642801DA46
:1025D000E36007E0E068904201DDE26002E08842EB
:1025E00000DAE1602169A068884203D16269E1688C
:1025F00091420AD0E2688118801A0B460246FFF722
:1026000053FFA0682061E068606110BDB401002044
:102610001C000020FDF7DEFFFFF712F9FEF752FF66
:10262000FEF7F0FFFFF70AF8FEF7A4FF04211D48AC
:10263000FEF7E2FB08211B48FEF7DEFB0C211948E0
:10264000FEF7DAFB012218491848FEF7F3FD41F2C4
:102650008830FDF733FEFFF7B9F8FFF77DF8FFF795
:10266000CDF8134E0F4DDFF84C804FF4005740F279
:10267000DC543220FDF722FE3078012806D10E48C6
:1026800000F0D4F8FFF754FFFFF76AFF39464046E1
:10269000FDF71BFF286884632868C4632868046406
:1026A000E7E700003C00002001000020D4000020EB
:1026B00018000020000C0140B401002008B56FF0A4
:1026C00004010B460A4602200091FEF7D5FF08BD23
:1026D000052008B503460246014600900220FEF799
:1026E000CBFF08BD08B56FF00600811C00900723E2
:1026F00005220220FEF7C0FF08BD08B507204342AF
:1027000000909A1C05210220FEF7B6FF08BD0020AC
:1027100008B503460246014600900220FEF7ACFFD2
:1027200008BD00002DE9F0418846417800781D4C35
:1027300001EB002080B2A0806188002581422ED06C
:10274000E0800840A08001264FF6FF77A18806FAB6
:1027500005F008421DD1618808421AD0B8F1730F04
:1027600017D1281F092813D2DFE800F01212121225
:102770001205080B1000FFF7B5FF09E0FFF7BDFFDA
:1027800006E06420FFF77CFEFFF7C1FFFFF736F895
:1027900067806D1CEDB2102DD8D3E0886080BDE855
:1027A000F08100001C0000202DE9F05F0026DFF81A
:1027B0007890074635464FF4804B4FF480584FF0E1
:1027C000010A00BF0AFA05F43C4201D0012200E0F0
:1027D000002259464846FDF780FE0A20FDF7DEFC40
:1027E000012241464846FDF778FE0A20FDF7D6FC57
:1027F000002241464846FDF770FE0A20FDF7CEFC58
:10280000012241464846FDF768FE4FF40041484624
:10281000FDF756FE08B13443E6B26D1CEDB2082D4B
:10282000D0D33046BDE8F09F0008014070B51A4E85
:1028300004464FF40055002229463046FDF74DFE70
:102840000120FFF7B1FF20704220FFF7ADFF60705D
:102850002078FFF7A9FFA0702078FFF7A5FFE070B0
:102860002078FFF7A1FF20712078FFF79DFF6071AE
:102870002078FFF799FFA0712078FFF795FFE071AE
:102880002078FFF791FF207229463046BDE870405E
:102890000122FDF722BE000000080140052008B516
:1028A0004142024600900B460220FEF7E5FE08BDBD
:1028B00008B56FF004020523194602200092FEF7C6
:1028C000DBFE08BD010202030405060708090A0B26
:1028D0000C0D0E0F1010000000000000000001029F
:1028E00003040607080900000000010203040000B9
:1028F0007B23303036502530337530543030303013
:10290000212330303750253033753054303030305B
:10291000212330303850253033753054303030304A
:102920002123303039502530337530543030303039
:10293000217D00007B2330303650253033753054F4
:10294000313030302123303037502530337530541A
:102950003130303021233030385025303375305409
:1029600031303030212330303950253033753054F8
:1029700031303030217D000023303030503135305F
:102980003054313030302123303031503138303014
:1029900054313030302123303032503232303054E4
:1029A00031303030212330303350313130305431F8
:1029B00030303021233030355031353030543130E3
:1029C0003030210D0A000000E82900080000002036
:1029D0003C0000005C1D0008242A00083C00002088
:1029E000840500006C1D00080000000001000000CC
:1029F000100000000000000000127A00000000003B
:102A0000000000000000FFFF0000000000000000C8
:102A10000000000000000000000000000B040000A7
:042A200000000000B2
:04000005080000ED02
:00000001FF
